:020000040800F2
:10000000980B00208901000823130008D70F00086F
:1000100021130008D5020008A11400080000000008
:10002000000000000000000000000000271300088E
:10003000D70200080000000025130008291300085B
:10004000A3010008A3010008A3010008A301000800
:10005000A3010008A3010008A3010008A3010008F0
:10006000A3010008A3010008A3010008A3010008E0
:10007000A3010008A3010008A3010008A3010008D0
:10008000A3010008A3010008A3010008A3010008C0
:10009000A3010008A3010008A3010008A3010008B0
:1000A000A3010008A3010008A3010008A3010008A0
:1000B000A3010008A3010008A3010008A301000890
:1000C000A3010008A3010008A3010008A301000880
:1000D000A3010008A3010008A3010008A301000870
:1000E000A3010008A3010008A301000800F002F822
:1000F00000F03AF80AA090E8000C82448344AAF188
:100100000107DA4501D100F02FF8AFF2090EBAE885
:100110000F0013F0010F18BFFB1A43F0010318473B
:100120009C300000BC300000103A24BF78C878C171
:10013000FAD8520724BF30C830C144BF04680C60ED
:10014000704700000023002400250026103A28BF35
:1001500078C1FBD8520728BF30C148BF0B60704739
:100160001FB51FBD10B510BD00F07AF81146FFF79E
:10017000F7FF01F0A7F900F098F803B4FFF7F2FFDA
:1001800003BC00F0A1F80000094880470948004777
:10019000FEE7FEE7FEE7FEE7FEE7FEE7FEE7FEE737
:1001A000FEE7FEE704480549054A064B7047000094
:1001B0008B130008ED00000898050020980B002024
:1001C00098070020980700204FF000020429C0F093
:1001D000128010F0030C00F01B80CCF1040CBCF179
:1001E000020F18BF00F8012BA8BF20F8022BA1EBCB
:1001F0000C0100F00DB85FEAC17C24BF00F8012BB0
:1002000000F8012B48BF00F8012B70474FF00002A7
:1002100000B5134694469646203922BFA0E80C50FC
:10022000A0E80C50B1F12001BFF4F7AF090728BFD7
:10023000A0E80C5048BF0CC05DF804EB890028BF53
:1002400040F8042B08BF704748BF20F8022B11F07C
:10025000804F18BF00F8012B7047704770477047F8
:10026000754600F02BF8AE4605006946534620F06F
:100270000700854618B020B5FFF794FFBDE8204081
:100280004FF000064FF000074FF000084FF0000B52
:1002900021F00701AC46ACE8C009ACE8C009ACE805
:1002A000C009ACE8C0098D46704710B50446AFF3ED
:1002B00000802046BDE81040FFF75FBF0048704750
:1002C000340500207047000001491820ABBEFEE74E
:1002D00026000200FEE7704772B6FEE770B50446DE
:1002E00000F0FEF80546601C02D004480078044483
:1002F00000F0F6F8401BA042FAD370BD00000020C9
:100300002DE9F84FDFF8B891002409F1040A0AF149
:10031000040B23460F270BF1040EC9E00125A5406D
:100320002A40AA427DD1674ED1F804C0ACEB060842
:10033000B44532D014DCBCF1030F3AD009DCBCF177
:10034000000F2AD0BCF1010F1CD0BCF1020F31D13B
:100350001DE0BCF1110F17D0BCF1120F2AD119E02A
:10036000B8F5881F19D006DCB8F5803F15D0B8F570
:10037000801F1FD111E0B8F5001F0ED0B8F5041F83
:1003800018D10AE0CB6815E0CB681B1D12E0CB68E2
:1003900008330FE0CB680C330CE08B682BB1012BDA
:1003A0004FF0080303D0456104E0042302E0056137
:1003B00000E00023FF2A01D8064601E000F1040610
:1003C0004FEA840501D9A5F12005D6F8008007FA87
:1003D00005FC28EA0C0803FA05F548EA0508C6F802
:1003E00000804D68ED0062D5374DAE6946F00106DC
:1003F000AE61AD6924F0030605F001050095334DAB
:1004000006EB050CDCF80850A607360F07FA06F8CD
:1004100025EA0805DFF8B880404503D14FF0000811
:1004200017E044E0DFF8AC80404502D14FF001080E
:100430000FE0DFF8A480404502D14FF0020808E049
:10044000DFF89880404502D14FF0030801E04FF0FB
:10045000040808FA06F848EA0508CCF808804D6850
:10046000D9F80060ED034D4601D5164300E09643F0
:100470002E604D68DAF80060AD03554601D516438D
:1004800000E096432E604D68DBF80060ED025D46AB
:1004900001D5164300E096432E604D68DEF80060FB
:1004A000AD02754601D5164300E096432E60641CEC
:1004B0000D682A46E5407FF431AFBDE8F88F0000B3
:1004C0000004014000001110001002400000014033
:1004D00000080140000C01400010014000140140E0
:1004E00001488068704700000000002070B50400DB
:1004F00025D094F83D00002520B984F83C502046D2
:1005000000F04EF9242084F83D002068016821F0B5
:10051000010101602068016841F400410160206828
:10052000016821F40041016000F08AFA4D4A6168D7
:10053000914201D84C4900E04C49884201D2012047
:1005400070BD4B492368B0FBF1F15E6826F03F06B1
:100550000E435E606368934206D94FF49673594325
:100560004FF47A73B1FBF3F12368491C1E6A26F03D
:100570003F06314319626168914210D84900401E1C
:10058000B0FBF1F2521CC2F30B02042A01D2042088
:1005900022E0B0FBF1F0401CC0F30B001CE0A268AD
:1005A000F2B301EBC10303EB0116431EB3FBF6F3F9
:1005B0005B1C43F480431B0549D092B301EBC1029D
:1005C00002EB0111401EB0FBF1F0401CC0F30B0028
:1005D00040F4804040F400402168CA694CF6FF7343
:1005E0009A431043C861D4E90710014320680268A8
:1005F00022F0C00211430160D4E9030101432068E5
:10060000826848F2FF339A4311438160D4E90501BF
:1006100008432168CA6822F0FF021043C86001E065
:100620000EE016E02068016841F0010101602564D8
:10063000202084F83D00256384F83E50002070BDE2
:1006400001EB4106431EB3FBF6F35B1CB3E701204D
:10065000C2E701EB4101401EB0FBF1F0401CC0F3CA
:100660000B00B7E7A086010080841E0000093D0052
:1006700040420F002DE9F84F1F4690468A46044637
:10068000DDF82890FFF72CFF054694F83D00202860
:100690007FD11923012240492046009500F028FD12
:1006A000002876D194F83C00012872D0012084F80B
:1006B0003C0020680168C90703D1016841F00101CD
:1006C00001602068016821F400610160212084F844
:1006D0003D00102084F83E0000262664C4F82480E3
:1006E0006785608D20852D48E0622B464A4651463D
:1006F000204600F089FC90B920684169806900902B
:1007000036E02A464946204600F071FD50B1206C83
:10071000042804D12068016841F4007101600120BF
:10072000BDE8F88F606A216800780861606A401C43
:100730006062618D491E6185218D491E89B22185C6
:1007400022685369DB435B070BD451B10078106119
:10075000606A401C6062608D401E6085208D401E76
:1007600020852A464946204600F09CFC0028CED130
:10077000208D0028C5D154F83D0B016841F400716B
:100780000160202004F81E09E67766770020C7E79D
:10079000FFE70220C4E70000020010000000FFFF96
:1007A00010B586B00021009101910291039100687B
:1007B000104988421BD1104CA06940F00800A0618C
:1007C000A069694600F0080004904FF44060009072
:1007D00012200190032003900848FFF791FDE06983
:1007E00040F48000E061E06900F48000049006B00D
:1007F00010BD00000058004000100240000C0140F5
:10080000024881680278114481607047000000202E
:10081000074810B5016841F010010160032000F0A5
:1008200067F80F2000F006F800F024F8002010BD53
:100830000020024070B50D4D04464FF47A712878BF
:10084000B1FBF0F00A490968B1FBF0F000F0CEFA14
:1008500048B9102C07D200222146501E00F028F87B
:1008600000206C6070BD012070BD00000000002001
:100870000C0000200C4808B5816941F0010181613C
:10088000816901F001010091C16941F08051C161AC
:10089000C06900F0805000900448416821F0E06198
:1008A00041F00071416008BD0010024000000140AD
:1008B000F0B40E4B1B680C46C3F30223C3F10705CB
:1008C000042D00D90425191D072901D2002300E0B9
:1008D000DB1E012606FA05F1491E214099409E4083
:1008E000761E16403143F0BC00F0DBBD0CED00E09D
:1008F000064900F0070208684FF6FF03184040EA77
:100900000220034A10430860704700000CED00E02D
:100910000000FA052DE9F0470F46050061D0434E6F
:10092000306800F00700B84209D2306820F00700B4
:1009300038433060306800F00700B84251D1286871
:100940003B4C810712D5400703D5606840F4E06056
:1009500060602878000703D5606840F460506060EC
:100960006068A96820F0F000084360602878C0073C
:1009700028D06868012810D02168022810D0890783
:1009800000292EDA616821F0030101436160FFF75D
:10099000A7FD804641F288390DE021688903EFE721
:1009A0008901EDE7FFF79CFDA0EB0801494502D95D
:1009B0000320BDE8F0876068696800F00C00B0EBC8
:1009C000810FEFD1306800F00700B8420BD93068D2
:1009D00020F0070038433060306800F00700B8426C
:1009E00001D00120E5E72878400705D56068E9686F
:1009F00020F4E060084360602878000706D560684E
:100A0000296920F4605040EAC100606000F028F8D5
:100A10006168084AC1F30311515CC8400649086087
:100A200006480068FFF706FF0020C2E700200240EA
:100A300000100240CE2000080C000020040000201E
:100A40000448054900684968044AC1F30221515C21
:100A5000C84070470C00002000100240DE20000853
:100A600012A185B00FC98DE80F0014A0144A0068C8
:100A700004905168134801F00C03042B10D0082B8C
:100A80000ED1C1F38343C9031DF803000AD5516891
:100A900004AAC1F34041515C0A4A5043B0FBF1F053
:100AA00005B0704708494843FAE70000020304050F
:100AB000060708090A0B0C0D0E0F101001020000AA
:100AC0000010024000127A0000093D002DE9F84FA5
:100AD000040070D02078C04DC00749D06868C0F3CA
:100AE0008100012807D06868C0F38100022809D17D
:100AF0006868C00306D52868800339D56068002877
:100B0000E7D035E06068B0F5803F0BD010B1B0F5AC
:100B1000A02F11D0286820F480302860286820F4A5
:100B2000802002E0286840F480302860606890B13E
:100B3000FFF7D6FC06460AE0286840F480202860CB
:100B4000F0E700BFFFF7CCFC801B642873D828684F
:100B50008003F7D50CE0FFF7C3FC064605E000BFB5
:100B6000FFF7BEFC801B6428F0D828688003F7D408
:100B700020789A4E80074FF001094FF0000839D5D0
:100B8000686810F00C0F07D06868C0F38100022875
:100B900009D16868C00306D42868800714D5206985
:100BA000012808D110E02069B0B1C6F80090FFF725
:100BB00097FC074605E00AE1FFF792FCC01B0228FC
:100BC000C4D828688007F7D52868616920F0F80044
:100BD00040EAC10028600DE0C6F80080FFF780FC05
:100BE000074604E0FFF77CFCC01B022823D82868D6
:100BF0008007F7D4207800072CD57948A169D9B1AE
:100C0000C0F80090FFF76CFC074604E0FFF768FCB3
:100C1000C01B02280FD8686A8007F7D571484FF4C7
:100C2000FA510068B0FBF1F0009000BF0098411E3F
:100C30000091FAD20EE080E0C0F80080FFF750FC8F
:100C4000074604E0FFF74CFCC01B022875D8686A11
:100C50008007F7D42078400760D5E8690027C000F6
:100C600008D4E86940F08050E861E869012700F0A5
:100C7000805000905C480168C90513D40168834620
:100C800041F480710160FFF72BFC824606E000BF53
:100C9000FFF726FCA0EB0A0064284ED8DBF8000022
:100CA000C005F5D5E06801280AD008B1052813D0A1
:100CB000286A20F001002862286A20F0040002E07F
:100CC000286A40F001002862E06841F2883B98B150
:100CD000FFF706FC82460BE0286A40F00400286219
:100CE000EEE700BFFFF7FCFBA0EB0A0159455AD81D
:100CF000286A8007F6D50CE0FFF7F2FB824605E094
:100D0000FFF7EEFBA0EB0A0159454CD8286A800793
:100D1000F6D41FB1E86920F08050E861E06988B33B
:100D20006968C1F38101022944D00228C6F86080B5
:100D300004D0FFF7D5FB044638E034E0FFF7D0FBE2
:100D4000074604E0FFF7CCFBC01B02282BD828681D
:100D50008001F7D4206AB0F5803F05D16868A168AA
:100D600020F4003008436860D4E90801084369684A
:100D700021F4741108436860C6F86090FFF7B0FB77
:100D8000044606E025E000BFFFF7AAFB001B02288F
:100D900009D828688001F7D51BE000BFFFF7A0FB4A
:100DA000001B022802D90320BDE8F88F28688001C3
:100DB000F4D40EE00128F7D06868226A00F480318C
:100DC000914204D1616A00F47010884201D0012080
:100DD000EAE70020E8E7000000100240000042427D
:100DE000800442420C0000200070004010B5401EFC
:100DF000B0F1807F01D3012010BD4FF0E02460618D
:100E00000F21601700F04DFB0020A061072020613A
:100E1000002010BD70B590F83C20012A26D0012496
:100E200080F83C40022280F83D2003685A689D68A3
:100E300022F070060A6832435A600D4B02689A42EB
:100E400008D0B2F1804F05D00A4B9A4202D00A4B2B
:100E50009A4204D1496825F080031943916080F8D3
:100E60003D40002180F83C10084670BD022070BD56
:100E7000002C0140000400400008004010B50400B0
:100E800003D094F83D0010B107E0012010BD002010
:100E900084F83C00204600F01FF8022084F83D0052
:100EA000211D206800F072FA012084F8460084F8C1
:100EB0003E0084F83F0084F8400084F8410084F844
:100EC000420084F8430084F8440084F8450084F824
:100ED0003D00002010BD000008B5006806498842AA
:100EE00008D10648816941F400618161806900F49C
:100EF0000060009008BD0000002C0140001002407E
:100F000070B5044690F83C00012817D0012584F8FC
:100F10003C50022084F83D002068826822F077026D
:100F200022F47F4282600868502830D00DDC2028EF
:100F30004DD005DC98B310283BD148E0022070BDAD
:100F4000302844D0402834D139E0602828D0702897
:100F500006D0B0F5805F2CD0B0F5005F29D10AE053
:100F6000CB68D1E90121206800F046FA2068816849
:100F700041F0770109E0CB68D1E90121206800F058
:100F80003BFA2068816841F48041816011E0CA68C1
:100F90004968206800F042FA5021206807E016E016
:100FA000CA684968206800F04AFA6021206800F0A9
:100FB0002DFA84F83D50002084F83C0070BDCA68CA
:100FC0004968206800F02AFA40212068EFE722688B
:100FD00001461046EBE7FEE701684A69D243520535
:100FE0000FD46FF480624A61002140F8301F202244
:100FF00042738173026942F00402026101730120AD
:101000007047002070470000F8B50446C06A1E46CD
:101010000D461746082807D0012805D010F5803F57
:1010200002D0206B122804D12068016841F480713D
:101030000160134600224FF001112046009600F097
:1010400057F840B120680068C00502D54FF4007021
:1010500020640320F8BD2069B0F5804F0ED0062033
:10106000216800EAD51040F0F000086133463A46A6
:101070000B49204600F070F878B902E005F0FE0058
:1010800000E0E8B221680861054933463A46891F05
:10109000204600F061F80028DCD00120F8BD0000F7
:1010A0000800010070B516460D4604460DE02046C6
:1010B000FFF792FF08B1012070BD681C05D0FFF753
:1010C0000FFA801BA84207D835B120684069C04399
:1010D0004007ECD4002070BD002044F8300F2021E0
:1010E0006173A073216941F0200121612073E2E75F
:1010F0002DE9F0471E4690460D460446C1F30747CA
:10110000DDF8209008E0701C06D0FFF7E9F9A0EBAD
:101110000900B0420FD876B12068012F18D080693D
:1011200025EA00000004000C14D000214145EAD05B
:101130000020BDE8F087002044F8300F20216173C3
:10114000A073216941F02001216120730120F0E7A3
:101150004069E5E70121E9E72DE9F0479A46914624
:101160000E46044600254FF02008C1F3074725E04E
:1011700020684069C043400514D42068016841F4E8
:101180000071016021686FF480604861256384F814
:101190003D8084F83E50206C40F00400206484F8C8
:1011A0003C501FE0B9F1FF3F08D0FFF799F9A0EBE1
:1011B0000A0149450CD8B9F1000F09D02068012F68
:1011C00013D0806926EA00000004000C0BD0CFE7A2
:1011D00044F8305F84F80D80A573206940F020004A
:1011E000206125730120BDE8F0874069EAE770B50A
:1011F00016460D4604460DE02046FFF7EDFE08B109
:10120000012070BD681C05D0FFF76AF9801BA84259
:1012100007D835B120684069C0430006ECD40020EF
:1012200070BD002044F8300F20216173A073216944
:1012300041F0200121612073E2E700000D4808B56C
:10124000816941F020018161816901F020010091F3
:10125000816941F008018161816901F00801009113
:10126000816941F004018161806900F0040000900F
:1012700008BD0000001002400D4810B50B49016088
:101280000C49416000214FF480428160C0E90312A3
:1012900041618161C1610162FFF728F9002803D033
:1012A000BDE81040FFF718B810BD0000005800401E
:1012B00018000020A086010010B586B00024174851
:1012C00000940194029403940494134905940160DA
:1012D0004721C0E901144FF6FF71C0E903144461CE
:1012E0008461FFF7CBFD08B1FEF7F6FF4FF48050A5
:1012F000009069460948FFF703FE08B1FEF7ECFFCE
:10130000049404A905480594FFF784FD002801D042
:10131000FEF7E2FF06B010BD002C01406C0000207B
:10132000FEE7FEE770477047FFF76ABA30B58FB047
:1013300028216846FEF76AFF14210AA8FEF766FF17
:1013400001210804CDE90010002402940225049133
:10135000CDE907504FF4E01009906846FFF7B6FB5F
:1013600008B172B6FEE70F20CDE90A054FF48060A0
:10137000CDE90C4002210AA80E94FFF7CBFA002811
:1013800001D072B6FEE70FB030BD7047F0B502680D
:10139000164B174C174D4FF08047984205D0B84276
:1013A00003D0A04201D0A84203D122F070064A68BF
:1013B0003243984205D0B84203D0A04201D0A8429F
:1013C00003D122F44074CA6822434C6922F080029F
:1013D000224302608A68C2620A688262984201D12E
:1013E0000969016301214161F0BD0000002C014049
:1013F000000400400008004010B5846842EA03225F
:1014000024F47F440A432243826010BD826822F0A4
:1014100070020A4342F007018160704710B5036A09
:10142000046A24F001040462846924F0F00444EAAC
:10143000021423F00A020A438461026210BD10B54F
:10144000036A23F0100303628369046A23F4704380
:1014500043EA023224F0A00343EA011182610162EF
:1014600010BD00000D4900220B685A620A6813681B
:1014700043F00103136009684A6A8242FCD3086A98
:1014800041F21112104207D1086A9210104203D1A2
:10149000086820F001000860704700006C00002020
:1014A000FEE70907090E002804DB00F1E02080F8C0
:1014B0000014704700F00F0000F1E02080F8141DC8
:1014C00070470000A8B0FFF7A3F9FFF72FFFFFF761
:1014D000B5FEFFF7D1FEFFF7EFFE02A800F04CF8D3
:1014E000234E1024254606F1200706F1400806F198
:1014F000600906F1800A641C00E000241D4902A86E
:1015000000F045F9CDE90056A1B21023002202A84F
:1015100000F0F6F804F11000CDE9005781B2102375
:10152000002202A800F0ECF804F12000CDE90058F8
:1015300081B21023002202A800F0E2F804F130008A
:10154000CDE9005981B21023002202A800F0D8F89A
:1015500004F14000CDE9005A81B21023002202A814
:1015600000F0CEF802A800F009F9802CC3D9C4E736
:101570002E200008E620000810B50446084B094A52
:10158000094900F04BF9204600F0F9FA0021204605
:1015900000F005FB2046BDE8104000F007B8000051
:1015A0008D1F0008351C00085830000801680A7CAF
:1015B00090F83810406B5143C900FEF705BE00009B
:1015C0003FB581B0044690F88C00089900283AD0C5
:1015D000BDF81000002836D0012811D9022902D008
:1015E000032907D00CE0BDF80820101A401CADF804
:1015F000080005E0BDF80C20101A401CADF80C00E6
:1016000011F0010521D0B4F84810BDF8080081425E
:1016100019D8B4F84A10814215D9B4F84E30B4F84C
:101620004C2004A90DF10C0000F074F900280AD038
:101630000095206BBDF81030BDF80C208568BDF812
:1016400008102046A84705B030BDB4F84C10BDF8CE
:101650000C008142F7D8B4F84E108142F3D9B4F8A7
:101660004A30B4F8482004A902A8DDE72DE9FF4F6D
:1016700081B090F89270DDF838901D468846064695
:101680009FB10020834603984146401C80B20090E1
:1016900008EB050083B23046039A00F057F80028A3
:1016A0002BD001244FF0000A23E00120EAE700BF1D
:1016B00099F80000204202D086F8927004E096F873
:1016C000910048B986F892B00123CDF800A04146B8
:1016D0003046039AFFF774FF08F101001FFA80F803
:1016E000600010F0FF0402D1012409F101096D1E10
:1016F000ADB2002DDCD186F8927005B0BDE8F08F58
:101700002DE9F84F8246DDE90A57D81DC0F3CC0811
:10171000501980B21C460090081983B216468946BB
:10172000504600F013F800280ED00BE02346324656
:10173000494650460097FFF799FF761C6D1E4744B7
:10174000B6B2ADB2002DF1D1BDE8F88F70B50D463F
:101750001E460446B0F84E10B0F84C00049B00F052
:1017600012F9002809D0B4F84A10B4F848003346FA
:101770002A46BDE8704000F006B970BD10B50446B9
:1017800000F091F92046BDE8104000F000BA10B515
:101790000446806D884209D004F17400A16500F010
:1017A0004DF92046BDE8104000F054B810BD0000CF
:1017B0000149C165704700006F1900080021A0F8B9
:1017C0005010A0F854104FF6FF71A0F85210A0F876
:1017D0005610016B4968084770B504460025049807
:1017E000A565E362616384F8382084F8395084F891
:1017F0006D5084F89150012184F8921084F8931070
:1018000020630168204688472046FFF7D7FF20461F
:10181000FFF7CEFF84F8705070BD00007CB50C4619
:10182000009313460546084A084900F0C0F901A88C
:1018300000F0FEF80146064B00949DF8042028466F
:10184000FFF7CAFF7CBD00005D1D0008851E000873
:10185000A119000810B5816D00291AD090F98130C6
:1018600080F88E3090F9822080F88F2090F88D10CB
:1018700000290ED001290DD090F97E4090F98010FA
:101880000C449C4201DD80F88E408A4201DD80F8E4
:101890008F1010BD90F983108B4201DA80F88E1002
:1018A00090F98410F1E738B50446B0F8560000907E
:1018B000B4F85230B4F85420B4F850102046FFF772
:1018C00045FF18B3012084F88C00B4F84810B4F830
:1018D0005000814201D2A4F84800B4F84A10B4F88C
:1018E0005200814201D9A4F84A00B4F84C10B4F86F
:1018F0005400814201D2A4F84C00B4F84E10B4F860
:101900005600814201D9A4F84E0038BD002084F869
:101910008C0038BD30B504880D882544ADB2AC428A
:1019200005D99C4202D25D1EADB200E014469C4235
:1019300001D2954201D8002030BD944200D2144615
:101940009D4200D91D460480281B0880012030BD1F
:1019500038B5C58F049C0094521BC46A92B2A0474C
:1019600038BD38B5049C0094FFF7F2FF38BD002065
:10197000704708444FF6FF720178407802EA01216F
:10198000084480B270478A4205D2834201D89A4205
:1019900003D9012070478342F9D800207047000026
:1019A000F0B502F007060124B440002590F892E05B
:1019B000E7B2DDF814C02C46BEF1010F01D83D4658
:1019C00000D03C46076822F00702BCF1000F3F7CC4
:1019D00007FB02F7BAB2476B3A44114409D10878C1
:1019E0005B1E284360401B0401F8010B1B0CF6D161
:1019F000F0BD0A78761C2A436240A3F101030A7005
:101A000016F007069BB206D06A06150E6206140E83
:101A1000002BEED1F0BD428F114490F89220012AA4
:101A200003D800BF4FF00105F2D04FF00104EFE7FB
:101A300008210170004870473401002070B5054648
:101A400008782870487868708878A870C878E87036
:101A5000087928714879687188790C46A871E0790D
:101A6000E871207A2872607A6872A07AA872E07AA7
:101A7000E872207B2873607B6873A07BA873E07B8F
:101A8000E873207C287411212046FFF772FF6882DA
:101A900013212046FFF76DFFA88215212046FFF78E
:101AA00068FFE88270BD2DE9F843064690F838706B
:101AB00090F83950006800244FF6FF7890F81190A4
:101AC000316830462A460B7C716B04FB03FC1FFA1D
:101AD0008CFC08EACC0C61440091002100F040F835
:101AE000641C6D1CE4B2EDB2BC4201D24D45E7D39B
:101AF000BDE8F883F0B590F838204FF6FF7503681D
:101B000005EAC2018187197C05EAC101418790F885
:101B1000394005EAC401C1875E7CA718B74201D9E4
:101B2000321B92B205EAC20220F8401F11444180E4
:101B3000998A8180D98AC180F0BDFFF7DBBF00217F
:101B4000A0F84810B0F84410A0F84A10B0F84010BF
:101B5000A0F84C10B0F84210A0F84E10FFF7A3BE4A
:101B60001CB58DF805108DF80620049C8DF8043006
:101B70000094012284686B460F21A0471CBD30B43D
:101B800084680023A44630BC1A460A21604730B45A
:101B900084680023A44630BC1A461021604730B444
:101BA00084680023A4460A4630BC0B2160472DE917
:101BB000F04115460E460446069F00F009F867619D
:101BC000A660C4E903532046BDE8F04100F012B816
:101BD000002140F8081B064A026042608260C26031
:101BE000C17681770161FF21017780F8201070476D
:101BF000891F000830B484680023A44630BC1A460C
:101C00000921604730B404690023A44630BC1A4659
:101C10001921604713B50122046901AB1721A047C0
:101C20001CBD30B404690023A44630BC1A461821F8
:101C30006047000038B5184818290DD004DC142975
:101C400007D0172923D10AE0192916D020291ED13F
:101C50001FE0FFF711FB1CE00021017019E00F4CA1
:101C600008E000BF017813F8015B6554491C521E5F
:101C70000170D2B2002AF5D10BE04FF47A710091D5
:101C80000378064A78210648FEF7F4FC08B10020E4
:101C900038BD012038BD000010000020B400002035
:101CA0001800002030B4C4680023A44630BC1A4693
:101CB0001921604730B4C4680023A4460A4630BCEA
:101CC0001621604730B4C4680023A4460A4630BCDD
:101CD0001521604730B4C4681346A4460A4630BC98
:101CE00017216047F8B50C464FEA000514F8011BB0
:101CF000182924D00EDC152919D0162917D0172938
:101D000023D120788DF800006A4601212846FFF78C
:101D1000E1FF0AE0192912D0FE2916D122788DF8A8
:101D200000202921284600F066F9641CDEE72278AD
:101D30008DF80020EE6800232846B047F5E7002321
:101D4000EE681A462846B047D0E7F8BD30B4C468FC
:101D50000023A44630BC1A46182160472DE9F04103
:101D6000DFF8B08014460646A1F11402002798F867
:101D700000001D46062A4AD2DFE802F02F03161B98
:101D80003E4310B13046FFF73DFF3046FFF749FFB5
:101D900000213046FFF73EFF21463046FFF73AFF6D
:101DA000012088F8000029E021463046FFF732FF85
:101DB00024E050B13046FFF725FF06E018213046F9
:101DC00000F01FF9183CE4B21835182C2A46F5D853
:101DD0002146304600F015F90EE096F82400FF2861
:101DE00002D1782086F8240037692B4622463046F7
:101DF000BC46BDE8F041604788F800700120BDE8AE
:101E0000F0810028F8D03046FFF7FCFEF4E7002010
:101E1000F5E700001100002070B500234569044675
:101E20001A462821A8470023E5681A4614212046AF
:101E3000A84701224B21204600F0DDF82068292127
:101E40000279204600F0D7F800224B21204600F00E
:101E5000D2F8206829210279204600F0CCF801222E
:101E60004B21204600F0C7F82068292142792046FE
:101E7000BDE8704000F0BFB80160897C80F8221096
:101E80007047000070B50C46054600F019F888B997
:101E9000092C0BD00A2C01D0002070BD2846FFF77A
:101EA000BBFF05492846FFF71DFF03E0034928460D
:101EB000FFF7E2FF012070BD8A3000088C31000876
:101EC0002DE9F0411E46144605460B2908D00D2980
:101ED0000ED00E291ED00F2927D00020BDE8F0819A
:101EE0001AB12849FFF7FEFE4AE02649491FF9E7E3
:101EF0004AB124490C31FFF7F5FE286890F8130029
:101F000085F822003CE01F49491DFFF7EBFE2868D9
:101F1000807CF5E7FFF71AFF81212846FFF7D2FE04
:101F200021462846FFF7C6FE27E0FFF70FFF70792E
:101F300095F8221001EBC000C7B240212846FFF7F8
:101F4000C1FE102040EA17112846FFF7BBFE07F03C
:101F50000F012846FFF7AEFEB07940F0B0012846E9
:101F6000FFF7A8FE30793268C006010E2846FFF759
:101F7000B1FE641E14F0FF04F4D12846FFF792FE70
:101F80000120ABE7693000080020704710B54D29EB
:101F900019D00CDC2B2918D004DC292920D02A29BF
:101FA0000ED114E02D291FD04C2909D10BE00022BD
:101FB00050291DD051291BD0522919D0532917D08F
:101FC000012180F82710012010BD00BFFBE7002091
:101FD0004FF4A07100BF401C80B28842FAD3F2E7F0
:101FE0000120FEF77BF9EEE70520FFF73BFAEAE771
:101FF00080F82720E7E730B444690023A44630BCCA
:1020000060472DE9F04115460E460446FFF709FEEC
:1020100040212046FFF7FEFD27692B463246172157
:102020002046B8472046BDE8F041FFF7EBBD8000F1
:1020300084108810900890048000FE1F001000108B
:102040000010FC1F001000100010FE1F00100010F8
:1020500000103E102210A27F221022103E102211EA
:102060002212221222103E1022100014000800003A
:10207000003F3E2122212221223F3E2122212221F6
:10208000223F3E2122218020802040282010000075
:10209000F81F081008100810F81F08100810081082
:1020A000F81F081008100410041002140108400062
:1020B00040002000FF7F1000100208020C02EA3FDF
:1020C00009020802080208020802F87F080000005E
:1020D00000000000000001020304060708090000D8
:1020E000000001020304BF000303050504050612F6
:1020F00013FEFD0CFD0CFE023805110F54200600E6
:10210000642401210D83252C13395442D1882502E2
:10211000220CA5E03521611945421100231A8A21BC
:102120005427128A8422D1417210298A4407C94156
:10213000A428128A6400241DE9E1531987846B9254
:1021400050441429A5188F9650A8122285249288ED
:10215000AC1C0425258C2574350B4E88A2485016DE
:10216000098A22515124329A4426D188281891058F
:1021700023A26048148C8D00261D8C257449078885
:10218000C422B1280EA0034814C948329A8464B40A
:10219000A592A534012708A2E425718900280EC460
:1021A000A533170AA988F426920503290FC4A13381
:1021B000118C896422BD884469002A11E7604517A3
:1021C0008CA44822A2912422C918032B0D0825545F
:1021D00027563B1C646235002C0CC4602B23A18C59
:1021E000429218002D0744E02C71082E0964202C1F
:1021F00023A148002F0F85212C99164C0BC682690C
:10220000C1200030148921543795C894649299B73D
:10221000894C245391CE00310A872554272AEE9FFA
:102220000E3213882554458B4946A6496C38D5167D
:10223000111E0E03331589215455132DC96262698D
:10224000790E98C84E13D1AC0434158921541D075A
:1022500088A7C4C830320B8D62A383703C3C351410
:102260008825547331C50171402D349EC44CA6D2CB
:10227000A804361689215457134D441499643C1907
:1022800051D66C13D96491043712882554F1100982
:102290004A82926058552C5D0E02381588255445A7
:1022A000134946A68948461349464E13918C043972
:1022B00017892154459CAC4966B6C98434194F64CA
:1022C00012926424AB013A0D04212C23A1C861129F
:1022D0008A04003B0F64612B23A1C86112CA282421
:1022E00089013C0B0865542D24319299053D0BC89A
:1022F0006454F120473A1C043E0B08655421E6481B
:102300006214033F148821444513492813D1702ACD
:102310008DA384A7E32000401EACE163599D8DE4AA
:1023200080504C12214944FA178A64120AC9627219
:10233000806836AD01411C8D216C2B07CE61731076
:102340001D1499032473406C7A88CAA6D1997444E9
:1023500033421A8C216C7118CE1647C3D16C7608A3
:10236000CE1647C3D170349B1C4600431B8B256C93
:102370005909CD2653C9980EA043E6903920328ED4
:102380004C6333290D00441A8D21747110CF866B74
:10239000C3D974341D4D47D3D170369C2D1D840094
:1023A00045198B216471200D4543D1286922B54E12
:1023B000A4A3A46968281A1E0C46198B21647120F5
:1023C0000D4543D1286922B54EA4A3E81C32878C61
:1023D0008F00471B8D25745909CE5665E3D01C101C
:1023E0009AC36687E96C381B2E91492100480F8EED
:1023F000217C71310DF7E361B8FF7431490A8721FF
:102400003C711AEE9F0E4A188A215C779D03E68084
:1024100039600E98894694D15270241A16014B1CCB
:102420008E216C71A90DA533F1480E98C82177C093
:102430001D30218FA833E29072314C198B216471C9
:102440009E43E69039640E9943E69069681A1A8AA9
:102450008607034D25902184613411899119313209
:102460008A0C23A3C83034890C43A46188348C8D32
:102470008631D9306D540A194E1E8E2174412D8D2E
:1024800083D4603185160C9182314A30588C12C346
:10249000C33840540E014F168C2574491ECD86A3B7
:1024A000E164EC79321C0D67A3311100501A8C21C4
:1024B0006C7118CE1647C3D170349B1D8273D01C2B
:1024C0003407CD015700511EEC6573491ECD86A31C
:1024D000E164EC493491842222B6D1B80E9BC40148
:1024E00075C80400521B8D21747198CE866BC3D9B8
:1024F000E2213A128FA6B3E16C129A1D68130053C1
:102500001489255C5549AC926D11A32566A6162346
:1025100091120054198B21647130ADCD64B3E01C6D
:102520003287CC2173C81C32878C4F00551B8E21FB
:1025300074712A8D83E3E038380E8E83E3E03838F7
:102540008E0EC32439840A561D8D1D6C71224D6573
:10255000C4E8303A8B034671C0240EA983E8A03941
:10256000500E940257228F2184516199E9161C8DD7
:1025700082A3897042094B229230853C9A4364724F
:10258000884C0E910901581A8C216451AA4C65C3DC
:10259000E8285C87D021744839440CCEA4935201BA
:1025A000591C8D1D6471290DA5B3F0280E99C42105
:1025B00074D81C3687CD6173D81C72035A148925D0
:1025C0005C71201227C1E9F27416194666B5430101
:1025D0005B09C4A53361D2FF445C108725542115E3
:1025E0004BC552B1542C154B055D09C4A53B41D2D6
:1025F000FF645E0DE864552796D2445A8444015F17
:102600000748A043F1206008646036219A096111EF
:10261000092154635A910D4BA2C96832214D0862B9
:102620001B8B1D5C5187CC2173C81CB248992DCDE2
:1026300046B3D16C449945222300630E08214C55C2
:102640001A95AC6B92898C04641A8B215C4B87CCF5
:102650002173C870329B9066A3D968369AAD102753
:1026600091016510092154559BAC1D0EE1A1642414
:102670002B016610891D3C49948C26B2E171BCC7C0
:10268000130067148961530F105DB6D92EA3A21CE5
:102690007039100F140068198B1D5C4187CC2173B1
:1026A000C81C32A19146A4B5D16C341BCD260D694E
:1026B0000C8521342322C901A47D296A10E65933EF
:1026C00027A3C921B57DAB544423006B178B215C34
:1026D0004187CC2173C81C3229AD4D86D6E368B63C
:1026E000D2006C0985213441DA7F296D100F2184D5
:1026F0004119CD2894D1FE7FA94C0A6E120B1D5CA6
:1027000041A191D646B3D16C341BCD260D6F0F0A73
:10271000215C471C4D861E27A3210D0070186A5DA1
:102720005B41995146B3C96C329BCC2694D1643637
:10273000078CAB0071166A5D535509ADCC26B3C941
:102740006C321BADDD0173C0B800720E09214C4123
:1027500019519644E3AD4500730D0721444399D5C3
:102760004EB7DA8402740F66213C170D8A2CB35DD4
:1027700022A5090075140B1D5C4122CD46B3D16C16
:10278000341BCD46145A650076130A215451A1CC4E
:102790004423E144380993E710210077180F217C86
:1027A000516199A98D46C109454A2153E800991CF8
:1027B000221302780F09215451598B55C7D35A6CF3
:1027C000322979176A5D5351A1CC6423D9285A9EC6
:1027D00003E610A9243A094F017A0F07214C711022
:1027E0004942B3A170443A087B0DC4A5332511E9D1
:1027F0002213E94D007C08823154F161007D0DC443
:10280000A1332113E92611E945047E0C68E4543311
:102810008A1C22A10900A00600642401A10D836581
:102820002B13B1444391432502A21588A1530F08ED
:10283000C74AA3924B6C128A8C62C4701800A3170B
:10284000892154571B494693D164161B5EE5002924
:102850004D62928C00A41508A5541391440E119159
:1028600044489488248748441201A5158A2154516C
:10287000A1CCD48213A9244C358BCD7288D804A660
:102880000982315471181E06A718E6654B350A49AE
:102890004212A98C121BCE2234A944141185460081
:1028A000A80845603621A108A91C8C2164671DCDAC
:1028B000C4125185220A8DC422F14424219124623C
:1028C000D9686A03AA0EE66035330A89284A12716C
:1028D0000500AB0CA6A4449522A18824A204AC094F
:1028E000A8A054F120D600AD0744E02C7108AE1C1E
:1028F0008C2164671DCDC412498994341BCA22B24D
:102900005148429954C4B2D1D406AF0625A03651DD
:10291000B00CA5E43D3391CC26920900B10F2825D7
:102920005427961D0E32B11C783808B20CE560357C
:1029300033095164690701B30FE660354311494219
:1029400032518824A100B408646436252901B519E0
:102950006B615B4122CD46B3D16C341BCD461492E2
:1029600064450E9A43E600B61B8B21647338844499
:10297000255149549291A422A9482A928AA422D985
:102980006100B70964E02C23A14800B809846033D2
:1029900013935500B909E464351519E942BA0BE5FA
:1029A00060353391B048C605BB0EA6A444110A4950
:1029B00044128A241402BC1B8C2574150E4D6542EA
:1029C000C5A84C2A4BA188A4A26928516292CAA228
:1029D00004BD1C8C2574150E4D6542C5A84C2A8B70
:1029E0004C2823A144311A140685A46001BE1E8D13
:1029F0002174430DA9C942CAB26848221449622110
:102A00008A482C1A87522536A9304ABF1488614358
:102A1000199E8EE32851E97024995044321200C067
:102A2000220D226C2707CEA1726C72E01C3607D1F2
:102A3000419139403207C4A687A86C1A9D49473492
:102A400003C1230D226C0F90C3E620393639700E76
:102A50009B83E8A0C81C20990362D34354368DCED3
:102A6000A4239A01C2230D226C1D07CE41123916F0
:102A700039700E9B83E8A0C81C20990362D343548D
:102A8000368DCEA4239A01C322ED216C398903220D
:102A9000734C72E01C3607D1419139403207C4A60D
:102AA00087A86C1A9D49473403C422ED216C2792F4
:102AB0000344722C72E01C3607D141913940320731
:102AC000C4A687A86C1A9D49473403C5230D226C00
:102AD0002B8745E430393639700E9B83E8A0C81C3B
:102AE00020990362D34354368DCEA4239A01C62184
:102AF000901D8477B016A591A134324A0C4DE48024
:102B0000903936119F324E43C1A14438B41C08C7D6
:102B100020EB656B5909CD2653C9980EA043E6906A
:102B20003920328E4C6333291D2087C9015300C8D8
:102B30001E0B22642707CD6172940369281A8A4606
:102B40004913A975221D254D4343D1F060C91F0BC0
:102B500022640F9043E60039CA8134140D45A3A4C2
:102B600089D43A918E92A6A1A1687830CA1F0B220F
:102B7000641D07CD011239F8401A8A86A251D24449
:102B80006A9D484749D3D050343C18CB1DEB216493
:102B900027928AE4E00369281A8A464913A9752214
:102BA0001D254D4343D1F060CC0E07223C231DCBA5
:102BB00041A7E1FEE900CD0E07223C299CC961A78F
:102BC000E1FEE900CE0E07223C179D49E490D37048
:102BD000FF74CF0EE7213CA32491434EC3FDD301E4
:102BE000D01A8D21747110CF866BC3D974621B4DBE
:102BF00047D3D170369C2D1D8400D124EE21743B27
:102C000089432273546A691CA4068B29B460881412
:102C10008C5182C16294181EC601A2720800D21B98
:102C20000C26742787CD81720CE4D16C381A4EC6FD
:102C30009E27C3D170361A1301D31C0C26740F9033
:102C400083E6103906F268361C0D2763CF93E168DE
:102C5000381B8D8900D41C0C26742B07D101223916
:102C60002A79341B8E8693B1E7C970349C8DC64493
:102C700000D51AEC2574390947E6C8E4D16C381A36
:102C80004EC69E27C3D170361A1301D61AEC25748E
:102C900027128BE4A8E4D16C381A4EC69E27C3D104
:102CA00070361A1301D711082554138C8C26B6F1EF
:102CB000CC329A042300D820CCE5730F0C9262A387
:102CC000D970349C0C23B6902966094E86A3E16C1A
:102CD000340B11E34000D9210E22742B87CEC17230
:102CE000D453691C1C07C7C171701C1C07C7C17174
:102CF000741826C9215400DA220E22740F9203E7B9
:102D00003039EAA9340E8E83E3E038380E8E83E33F
:102D1000E0383A0C93E4102A00DB220E22740F9064
:102D200003E92075B453691C1C07C7C171701C1CD2
:102D300007C7C171741826C9215400DC21EE217423
:102D40002B92434472B453691C1C07C7C171701C99
:102D50001C07C7C171741826C9215400DD230D1E3C
:102D6000640F91C3E62039E2A53494CEC2A338643F
:102D70001287D06173D81C3687CD6173C80D00DE11
:102D80001A8C216C7107CC4187E06C71341C0D47A3
:102D9000B3D9213807CD015700DF178A21545714C2
:102DA000ED936C329B896693D96436A14C2823003D
:102DB000E0168921542307CC217204D38A6C58125F
:102DC0004D4693096942E1158921542B9ECA114C45
:102DD0002BB2614934194D26A40901E21689215408
:102DE00017074C2572B06945362C8926A3C984344F
:102DF00021E315692154358945E660D38A6C581260
:102E00004D4693096942E415692154A32891834DE5
:102E10002BB2614934194D26A40901E516892154C4
:102E2000278E88E508A615D9B0249A8C2613D2845B
:102E300000E6160D217C53212D4964A3D181229AED
:102E40008E661592885202E71368614B551A956C8D
:102E5000D5996422A3CA01C21900E8168921542514
:102E600007CC217284DA64ED70080F25235909001C
:102E7000E9148921542B9ECA516A93B5C3213C940D
:102E80008C642500EA1589215419074C2572706D50
:102E9000B2763884879291AC04EB156921542511E0
:102EA0004AE4E0DA64ED70080F2523590900EC0BC1
:102EB000852134211B8A49FB52ED0C852134279A48
:102EC000C801A47D29EE0C852134159BA892F6A596
:102ED00000EF0B65213421A14849FB52F015A921CF
:102EE0005C23874C8453891C302C4D6EDE268B333B
:102EF00000F1176B1D5C398946E608141A696D34B8
:102F00001BCD46B3D16CD200F2148A215C2787CC4A
:102F1000417214DB6832F43819CD4C00F3138A2166
:102F20005C2D078CE548B6D164E871329A9900F4BB
:102F3000148A215C290750457204DB6832F4381981
:102F4000CD4C00F5136A215C370946E628B6D164FA
:102F5000E871329A9900F6136A215C25914AE428B7
:102F6000B6D164E871329A9900F70E082554279675
:102F7000030F0739502C03F81989A1530F890382D5
:102F8000B4916474895822A78968468C03E21000C2
:102F9000F9198B1D5C2707CD6172141269369A8D61
:102FA00066A3D96836A2D02A03FA188B1D5C2D8738
:102FB000CC017224A6D968369A8D66A3D98842AB13
:102FC0000CFB1A8B1D5C1B07CD0112390289341BC7
:102FD000CD46B3D16C341B51689501FC186B1D5C58
:102FE00027114BE40824D26C341BCD46B3D16C447A
:102FF000A15506FD1FEB5D532D87CC0172A44A65D8
:10300000289B4545D2491C4007CC416249781207AC
:103010008C01FE1FEA5D5B4107CC0173C01C309937
:103020005146B3C96C329BCC2694D16436078C8D43
:1030300000FF1ECB5D5327114BE408959250368B51
:103040008AA49338800E9883C492F0240E1803004B
:10305000000004FFFF0000003B1B00083F1B0008AE
:10306000631900081815AF19FF1815AE19FF1815C8
:10307000A115C819FF1815A015C019FF1815A1151D
:10308000C019FF1815A015C819FF1815AE15D516CB
:103090008015A8163F15D316001540158D1614156A
:1030A00020160015A115C815DA1612158116CF15B0
:1030B000D916F115DB1640152E15A415A619FF1803
:1030C00015AE15D5168015A8163F15D31600154058
:1030D000158D16141520160015A115C815DA16122F
:1030E000158116EF15D916A115DB1600152E15A49E
:1030F00015A619FF1815AE15D5168015A8163F157B
:10310000D316001540158D16141520160015A1159F
:10311000C815DA1602158116CF15D916F115DB166A
:1031200040152E15A415A619FF1815AE15A415D512
:10313000165015A8163F15D31600154015AD168B61
:1031400015D9162215DB16351532158116FF15A671
:1031500015DA161219FF1815AE15D5168015A81612
:103160003F15D316001540158D16141520160015A1
:10317000A115C015DA1612158116CF15D916F1153D
:10318000DB1640152E15A415A619FF000001140A20
:103190006464323200127A0000042896100800009D
:1031A000800040000001140A6464323200093D00CE
:1031B000030428961008020280004000DC31000859
:1031C000000000201800000028010008F431000869
:1031D00018000020800B00004401000801000000DE
:1031E00010000000000000000024F40000000000B7
:0431F00000000000DB
:04000005080000ED02
:00000001FF
