:020000040800F2
:1000000080070020910100087107000865050008BD
:100010006D07000849040008BB0D0008000000003F
:100020000000000000000000000000004909000876
:100030004D04000800000000E5070008350B00082B
:10004000AB010008AB010008AB010008AB010008E0
:10005000AB010008AB010008AB010008AB010008D0
:10006000AB010008AB010008AB010008AB010008C0
:10007000AB010008AB010008AB010008AB010008B0
:10008000AB010008AB010008AB010008AB010008A0
:10009000AB010008AB010008AB010008AB01000890
:1000A000AB010008AB010008AB010008AB01000880
:1000B000AB010008AB010008AB010008AB01000870
:1000C000AB010008AB010008AB010008AB01000860
:1000D000AB010008990B0008AB010008AB01000858
:1000E000AB010008AB010008AB01000800F002F80A
:1000F00000F03FF80AA090E8000C82448344AAF183
:100100000107DA4501D100F034F8AFF2090EBAE880
:100110000F0013F0010F18BFFB1A43F0010318473B
:1001200090120000B0120000103A24BF78C878C1C5
:10013000FAD8520724BF30C830C144BF04680C60ED
:10014000704700000023002400250026103A28BF35
:1001500078C1FBD8520728BF30C148BF0B60704739
:10016000642900F07780002070471FB51FBD10B5CF
:1001700010BD00F037F91146FFF7F7FF00F002FF5E
:1001800000F055F903B4FFF7F2FF03BC00F017FECF
:100190000948804709480047FEE7FEE7FEE7FEE71B
:1001A000FEE7FEE7FEE7FEE7FEE7FEE70448054957
:1001B000054A064B70470000390B0008ED000008A7
:1001C00080010020800700208003002080030020A1
:1001D000704700000FB4044910B503AA029800F05C
:1001E000D3F810BC5DF814FB4C0000202DE9F04161
:1001F0000E460446002020622046E168884730B35E
:10020000252805D0D4E901219047206A401CF2E757
:10021000E168204600278847050018D0A5F1410075
:10022000192802D820354FF4006732462946204667
:100230002760FFF795FF40B1012804D0F61D26F096
:1002400007060836D8E7361DD6E72846DAE7206ADB
:10025000BDE8F0812DE9F0410646002410687529BB
:10026000314616A510D0AFF30080002802DA4042D4
:1002700013A507E031688A0701D512A502E04907F6
:1002800004D511A5012401E0AFF3008000210A226A
:1002900006F1240709E0B0FBF2FCB0FBF2F302FB2D
:1002A0001C00303078541846491C0028F3D12346EE
:1002B0002A463046BDE8F04100F00CB800000000CE
:1002C0002D0000002B000000200000007047704748
:1002D000704770472DE9F0470D469946924604460F
:1002E00000F124080168880604D5E06921F01001B6
:1002F000216000E00120A84201DD471B00E000274B
:10030000A1697A1902EB0900081AA0612078C006D9
:1003100002D42046AFF30080002608E0D4E9012192
:100320001AF806009047206A401C761C20624E4551
:10033000F4DB2078C0060AD52046AFF3008006E043
:10034000D4E9012130209047206A401C2062381EE9
:10035000A7F10107F4DC07E0D4E9012118F8050052
:100360009047206A401C2062281EA5F10105F3DC9D
:100370002046AFF300802078000602D50220BDE8B9
:10038000F0870120FBE70000074B70B50D467B446A
:1003900000F011F80446284600F020F810B14FF0A4
:1003A000FF3070BD204670BD0F0B000001694A1C74
:1003B00002610878704700B58FB0CDE901310021A6
:1003C000059105497944CDE9031011466846FFF7C8
:1003D0000DFF0FB000BD0000E5FFFFFF007B00F048
:1003E00080007047754600F02BF8AE460500694660
:1003F000534620F00700854618B020B5FFF7D6FE1B
:10040000BDE820404FF000064FF000074FF0000815
:100410004FF0000B21F00701AC46ACE8C009ACE896
:10042000C009ACE8C009ACE8C0098D46704710B5FA
:100430000446AFF300802046BDE81040FFF7A2BE9F
:10044000004870471C01002000BFFEE770472DE9FF
:10045000F04102460025002600200023002400274A
:1004600091F803C00CF00F0591F803C00CF0100CCC
:10047000BCF1000F03D091F802C04CEA050591F8D9
:1004800000C0BCF1000F31D0146800202BE04FF009
:10049000010C0CFA00F3B1F800C00CEA03069E420E
:1004A00020D183004FF00F0C0CFA03F7BC4305FA80
:1004B00003FC4CEA040491F803C0BCF1280F06D1F8
:1004C0004FF0010C0CFA00FCC2F814C00AE091F8DD
:1004D00003C0BCF1480F05D14FF0010C0CFA00FC31
:1004E000C2F810C0401C0828D1D31460B1F800C075
:1004F000BCF1FF0F34DD546800202EE000F1080C41
:100500004FF0010808FA0CF3B1F800C00CEA03063A
:100510009E4221D183004FF00F0C0CFA03F7BC432D
:1005200005FA03FC4CEA040491F803C0BCF1280F5F
:1005300005D100F1080C08FA0CF8C2F8148091F803
:1005400003C0BCF1480F07D100F1080C4FF00108BF
:1005500008FA0CF8C2F81080401C0828CED354606A
:10056000BDE8F08100BFFEE770B50024002500263D
:1005700000201E4908601E48006820F070401C4999
:1005800008600846006840F000400860042000F061
:100590003BFC00BF18E0012014490860032000F074
:1005A00033FC00261348D0F81C0108B1012600E0F6
:1005B000002646EA4400C4B200200C49086003202B
:1005C00000F022FC681CC5B2082DE4DB0848006876
:1005D00020F07040064908600846006840F000407E
:1005E00008600A2000F010FC204670BD988121426E
:1005F000000C01400080214210B51348006820F033
:100600007040114908600846006840F0405008609A
:1006100001200E490860042000F0F6FB01200C497F
:10062000C1F89C01042000F0EFFB00200749091DE0
:100630000860042000F0E8FB00200549C1F898019B
:10064000042000F0E1FB10BD000C01409881214224
:100650000080214210B50F48006820F070400D491D
:1006600008600846006840F04050086000200A49D1
:100670000860042000F0C8FB01200849C1F8980177
:10068000042000F0C1FB012003490860042000F0B1
:10069000BBFB10BD000C01409C8121420080214227
:1006A00070B504461F48006820F070401D4908607E
:1006B0000846006840F04050086000251BE000201C
:1006C00019490860052000F09FFB04F0800020B16C
:1006D00001201549091D086003E000201249091D89
:1006E0000860012010490860052000F08DFB6006BD
:1006F000040E681CC5B2082DE1DB00200A49086021
:10070000042000F0A7FB0748006820F0704005496E
:1007100008600846006840F000400860042000F0CF
:1007200099FB70BD000C01409881214208B5012160
:10073000082000F059F8C020ADF8000010208DF816
:10074000030003208DF8020069460548FFF77FFE8D
:100750000120044908600449C1F89C0108BD00005B
:10076000000C0140988121420080214200BFFEE739
:100770007047000070B5002100230F22C47804B335
:10078000154C246804F4E064C4F5E064210AC1F166
:100790000403CA40447804FA03F1847814402143E6
:1007A00009010E4C0678A155047804F01F050124B8
:1007B000AC4005786D11AD0005F1E025C5F80041AC
:1007C00009E0047804F01F050124AC40044D0678CC
:1007D000761145F8264070BD0CED00E000E400E025
:1007E00080E100E07047000029B1064A92690243A7
:1007F000044B9A6104E0034A92698243014B9A6177
:10080000704700000010024030B500210022002493
:1008100000232D4D6D6805F00C0121B1042905D090
:10082000082923D105E0294D056022E0274D056008
:100830001FE0254D6D6805F47012234D6D6805F4B9
:100840008034022505EB92421CB9214D55430560C9
:100850000BE01D4D6D6805F400351DB11C4D554371
:10086000056002E0194D5543056002E0174D056033
:1008700000BF00BF144D6D6805F0F0010909154D6A
:100880006B5C0568DD4045600F4D6D6805F4E06107
:10089000090A104D6B5C4568DD4085600A4D6D6846
:1008A00005F46051C90A0B4D6B5C4568DD40C560BD
:1008B000054D6D6805F44041890B074D6B5CC568BB
:1008C000B5FBF3F5056130BD0010024000127A005F
:1008D00000093D00140000202400002070B5002510
:1008E00000240020154908601548006820F0704079
:1008F000134908600846006840F000400860042082
:1009000000F0A8FA01200F49C1F89801042000F076
:10091000A1FA01E0601CC4B208487C38006808B144
:10092000642CF7DB002005490860042000F092FAEF
:10093000642C00DA0125284670BD00009881214210
:10094000000C0140008021427047000010B516489D
:10095000006820F07040144908600846006840F0C4
:1009600040500860002011490860042000F072FA2D
:1009700001200F49C1F89C01042000F06BFA01200E
:100980000A490860042000F065FA00200849C1F80F
:100990009801042000F05EFA00200449091D086057
:1009A000042000F057FA10BD000C0140988121424C
:1009B0000080214210B51848006820F070401649A8
:1009C00008600846006840F0405008600020134965
:1009D0000860042000F03EFA00201149C1F89C0193
:1009E000042000F037FA01200C490860042000F0D0
:1009F00031FA00200A49C1F89801042000F02AFACF
:100A00000548006820F07040034908600846006807
:100A100040F00040086010BD000C01409881214268
:100A20000080214210B500F001F810BD0CB5002087
:100A3000019000903348006840F4803031490860EC
:100A400000BF3048006800F4003000900198401C5E
:100A50000190009818B90198B0F5A06FF1D129481C
:100A6000006800F4003010B10120009001E0002087
:100A700000900098012843D12348006840F01000FE
:100A8000214908600846006820F003000860084615
:100A9000006840F0020008601A4840681949486040
:100AA0000846406848600846406840F480604860F6
:100AB0000846406820F47C1048600846406840F4CE
:100AC000E81048600846006840F08070086000BF89
:100AD0000C48006800F000700028F9D00948406810
:100AE00020F00300074948600846406840F00200D3
:100AF000486000BF0348406800F00C000828F9D1A6
:100B00000CBD00000010024000200240042808D163
:100B10004FF0E021096941F004014FF0E02211613A
:100B200007E04FF0E021096921F004014FF0E022D5
:100B3000116170477047000010B51348006840F01D
:100B400001001149086008464068104908400E49F4
:100B50004860084600680E4908400B49086008468E
:100B6000006820F4802008600846406820F4FE00F9
:100B700048604FF41F008860FFF754FF4FF000609B
:100B80000449086010BD0000001002400000FFF89A
:100B9000FFFFF6FE08ED00E010B540F225511D48BC
:100BA00000F04AF810B31B4800F002F9C4B21A482A
:100BB000008800F40040C8B91748008800F480405D
:100BC00060B10A2C03D000201349088020E01248AD
:100BD000008840F400401049088019E00D2C06D12F
:100BE0000D48008840F480400B49088010E00A4816
:100BF0000088C0F30D0009490C5407480088401CC8
:100C00000549088008460088C72801DD00200880C3
:100C100010BD0000003801405000002054000020AA
:100C200021B1828942F40052828104E082894DF62A
:100C3000FF731A408281704770B50246002400237A
:100C40000025002040F66A16B14200D100BFC1F372
:100C5000421501F01F03012606FA03F3012D02D10C
:100C60009689334006E0022D02D1168A334001E016
:100C7000968A33400C12012606FA04F41688344092
:100C800013B10CB1012000E0002070BDF0B50346A7
:100C9000002400260025002040F66A17B94200D142
:100CA00000BF1846C1F3421401F01F06012707FADE
:100CB00006F5012C01D10C3004E0022C01D11030DA
:100CC00000E014301AB107682F43076002E007689C
:100CD000AF430760F0BD00002DE9F04786B0054640
:100CE0000E460024A24600BFA1460027B08900B1ED
:100CF00000BF2F462C8A4CF6FF700440F088044356
:100D00002C82AC894EF6F3100440B0883189084338
:100D1000718908430443AC81AC8A4FF6FF4004401C
:100D2000B0890443AC8201A8FFF76EFD1F488742DB
:100D300002D1DDF810A001E0DDF80CA0A88900F4D4
:100D4000004040B10AEBCA0000EB0A1031684900CC
:100D5000B0FBF1F807E00AEBCA0000EB0A103168BB
:100D60008900B0FBF1F86420B8FBF0F00401200921
:100D7000642101FB1089A88900F4004040B13220B1
:100D800000EBC900B0FBF1F000F00700044308E0FD
:100D9000322000EB09106421B0FBF1F000F00F00ED
:100DA00004432C8106B0BDE8F08700000038014004
:100DB00001468888C0F30800704700BFFEE700BF07
:100DC0007047000010B56FF00400FFF79FFE0A485F
:100DD00000680A49B0FBF1F009490870084600783C
:100DE00000EB4001C1EBC0104FF6FF7101EAC000FB
:100DF0000449088010BD00000000002000127A00A5
:100E000046000020480000200146114A12884A434B
:100E10004FF0E0235A6100229A611A46126942F0AB
:100E200001021A6100BF4FF0E022106900F00102D8
:100E30001AB100F48032002AF5D04FF0E022126996
:100E400022F001024FF0E0231A6100229A617047FC
:100E5000480000200146114A12784A434FF0E0232F
:100E60005A6100229A611A46126942F001021A611F
:100E700000BF4FF0E022106900F001021AB100F447
:100E80008032002AF5D04FF0E022126922F00102F0
:100E90004FF0E0231A6100229A617047460000205B
:100EA00000BF054A128802F04002002AF9D0C2B2FF
:100EB000014B1B1D1A8070470038014010B5FFF729
:100EC0009BFB7020FFF7ECFBFFF708FD2049087043
:100ED0000846007818B11FA0FFF77CF902E01EA0B9
:100EE000FFF778F9E120FFF7DBFBFFF7F7FC184984
:100EF00008700846007818B119A0FFF76BF902E0F6
:100F000018A0FFF767F90820FFF7CAFBFFF7E6FC18
:100F10000F4908700846007818B114A0FFF75AF975
:100F200002E013A0FFF756F90020FFF7B9FBFFF727
:100F3000D5FC074908700846007818B10EA0FFF7E5
:100F400049F902E00DA0FFF745F9FFF783FB10BD5B
:100F50002800002033000000332D6E2D000000001B
:100F600034000000342D6E2D00000000350000001C
:100F7000352D6E2D0000000036000000362D6E2D40
:100F800000000000FFF71EFF4FF4E13000F0C0F951
:100F9000FFF7CCFB08E005A0FFF71CF900F004F90F
:100FA0004FF4FA60FFF730FFF5E70000BFAACABCB4
:100FB000B2E2C1BFA3ACC7EBC9D4B5C8A3BA0000A5
:100FC0002DE9F041002404E0002067490855601C29
:100FD000C4B2062CF8DBFFF70FFB7120FFF760FBB4
:100FE000FFF77CFC61490870FFF7BEFA5E490870A4
:100FF000FFF7E0FCFFF7B8FA5B494870FFF7DAFC4F
:10100000FFF7B2FA58498870FFF7D4FCFFF7ACFA43
:101010005549C870FFF7CEFCFFF7A6FA5249087190
:10102000FFF7C8FCFFF7A0FA4F494871FFF78EFCA5
:10103000FFF710FB4C48007800F0680008284ED1FC
:10104000494840784A49086047488078096840EA3A
:101050000120474908604448C078096840EA0120F7
:1010600043490860084600680009086008460068AF
:101070004FF47A714843000D3D4908603A48C07802
:101080003C4908600846007800F00F0008603648C8
:101090000079096840EA0120364908603248407901
:1010A000096840EA012033490860084600684FF4A7
:1010B000FA6148438910C1EB10502E4908602C4852
:1010C0000088000A2C49087029480078487029488F
:1010D0000088000A887027480078C87008E0FF2060
:1010E0002549087048708870C87024A0FFF772F80E
:1010F00024A0FFF76FF81F4800680A21B0FBF1F247
:1011000001FB12051B480068B0FBF1F0B0FBF1F2E7
:1011100001FB1206174800686421B0FBF1F72B466B
:101120003246394618A0FFF755F8114800680A21E1
:10113000B0FBF1F201FB12050D480068B0FBF1F0C5
:10114000B0FBF1F201FB1206094800686421B0FB14
:10115000F1F72B46324639460FA0FFF73BF809A0BE
:10116000FFF738F8BDE8F0812900002028000020B2
:10117000300000203400002038000020CAA7B0DC76
:10118000C1CB00000D0A0000CEC2B6C83A256425C6
:10119000642E256400000000CAAAB6C83A2564255A
:1011A000642E25640000000010B50A20FFF72CFE15
:1011B00000F014F80A20FFF727FEFFF77FFE0A2051
:1011C000FFF722FE00F040F85020FFF71DFEFFF76A
:1011D000F7FE0520FFF718FE10BD000010B5FFF761
:1011E0000BFA7020FFF75CFAFFF778FB0F490870E5
:1011F0000846007818B10EA0FEF7ECFF02E00DA043
:10120000FEF7E8FFBA20FFF74BFAFFF767FB074945
:1012100008700846007818B108A0FEF7DBFF02E06E
:1012200007A0FEF7D7FFFFF715FA10BD2800002032
:1012300031000000312D6E2D000000003200000052
:10124000322D6E2D0000000010B5FFF7D5F970208B
:10125000FFF726FAFFF742FB20490870084600789E
:1012600018B11FA0FEF7B6FF02E01EA0FEF7B2FF06
:10127000AC20FFF715FAFFF731FB18490870084654
:10128000007818B119A0FEF7A5FF02E018A0FEF73C
:10129000A1FF3320FFF704FAFFF720FB0F49087086
:1012A0000846007818B114A0FEF794FF02E013A0DE
:1012B000FEF790FF0020FFF7F3F9FFF70FFB074958
:1012C00008700846007818B10EA0FEF783FF02E010
:1012D0000DA0FEF77FFFFFF7BDF910BD280000202D
:1012E00037000000372D6E2D000000003800000090
:1012F000382D6E2D0000000039000000392D6E2DB4
:10130000000000003130000031302D6E2D00000053
:1013100010B586B00446012144F20400FFF764FAD8
:101320004FF40070ADF8140003208DF8160018205B
:101330008DF8170005A91C48FFF789F84FF4806065
:10134000ADF8140004208DF8170005A91648FFF722
:101350007EF825208DF8000003208DF801008DF81F
:10136000020001208DF803006846FFF703FA01949C
:101370000020ADF80800ADF80A00ADF80C00ADF89B
:1013800010000C20ADF80E0001A90848FFF7A4FCDE
:10139000012240F225510548FFF778FC012103485E
:1013A000FFF73EFC06B010BD0008014000380140C8
:1013B000D01300080000002054000000280100089D
:1013C00024140008540000202C07000044010008E9
:1013D00000A24A0400000000000000000102030413
:1013E00006070809000000000102030401020304CB
:1013F00006070809020406080000000000000000BB
:10140000000000000000000000000000FA060A00D2
:101410000000000000FF00000000000000000000CD
:0414200000000000C8
:04000005080000ED02
:00000001FF
